:020000040800F2
:10000000580700206102000825300008B12E0008C2
:100010002130000891140008A534000800000000F9
:100020000000000000000000000000002D3000086B
:10003000A114000800000000293000083130000839
:100040007B0200087B0200087B0200087B0200089C
:100050007B0200087B0200087B0200087B0200088C
:100060007B0200087B0200087B0200087B0200087C
:100070007B0200087B0200087B0200089514000840
:100080007B0200087B0200087B0200087B0200085C
:100090007B0200087B0200087B0200087B0200084C
:1000A0007B0200087B0200087B0200087B0200083C
:1000B0007B0200087B0200087B0200087B0200082C
:1000C0007B0200087B0200087B0200087B0200081C
:1000D0007B020008393400087B0200087B0200081C
:1000E0007B0200087B0200087B02000800F002F897
:1000F00000F0A6F814A696E8000CB244B344DA4522
:1001000001D100F09DF8BAE80F000FA696E8300084
:10011000A5EB040504EB0607AAEB0704A7F101070A
:100120004FEA15154FEA3414A4F10104AC4201D38F
:1001300000F086F813F0010F18BFFB1A43F001031B
:1001400000F001F8DBE71847E8430000084400002E
:10015000103A24BF78C878C1FAD8520724BF30C8F3
:1001600030C144BF04680C60704700007047000055
:100170000023002400250026103A28BF78C1FBD8B0
:10018000520728BF30C148BF0B6070476E2900F08E
:100190005382702900F0BB85662904F0248165290B
:1001A00004F02181672904F01E81612904F01D817A
:1001B00003681B0A28BF41F08001692900F0008212
:1001C000642900F0FD81752900F0FA816F2900F0A3
:1001D0004985782900F08785E92900F0E384E4293E
:1001E00000F0E084F52900F0DD84EF2900F0468579
:1001F000F82900F086850368DB0928BF41F08001FB
:10020000632900F06584732900F06A84E32900F013
:10021000F387F32900F0F887002070471FB500F03E
:1002200081FD04000020002103F0CAFD401C606035
:100230000020002103F0AEFDE0601FBD10B510BD31
:1002400001F080F81146FFF7E9FF03F02DF901F006
:10025000A7F803B4FFF7F2FF03BC01F0EBF80000CE
:100260000948804709480047FEE7FEE7FEE7FEE74A
:10027000FEE7FEE7FEE7FEE7FEE7FEE70448054986
:10028000054A064B7047000035300008ED000008B5
:100290005801002058070020580300205803002070
:1002A0007CB51D4616460C00009007D04142A14285
:1002B00002D32044401E01E04FF0FF30064B7B4448
:1002C0002A4669460190304600F0DDFB002C02D042
:1002D000009A002111707CBDEB0700000FB41CB523
:1002E0000C0007AA009007D04142A14202D320444B
:1002F000401E01E04FF0FF30074B7B446946019000
:10030000069800F0C0FB0021002C01D0009A11706B
:100310001CBC5DF814FB0000AF07000070B50C4674
:100320000546012A05D02878800600D5EA69002311
:1003300002E0012305E05B1C934202D2E05C00284E
:10034000F9D1A869E618C01AA861286A1844286279
:10035000284600F0FBF804E0D5E9012114F8010B70
:100360009047B442F8D3284600F006F970BD00006B
:100370002DE9F05F894604464FF0000ADFF874B1BA
:10038000FB44C0F820A02046E1688847002874D0CC
:10039000252806D0D4E901219047206A401C20621C
:1003A000F1E700265F462046E16888472028054699
:1003B00007DB312D05D2781910F8200C08B106435F
:1003C000F1E7B00701D526F00406C4F81CA0002709
:1003D000C4F818A02A2D09D0284603F0D3FC38B35E
:1003E00004EB8708303DC8F8185019E059F8041B91
:1003F000204604EB87029161E1688847012F05469A
:1004000018D1E069002820DA26F020061DE0D8F88F
:10041000180000EB800005EB40003038C8F81800E9
:100420002046E1688847054603F0ACFC0028EED181
:10043000012F0AD02E2D08D12046E16888477F1C65
:100440000546022F46F02006C4DBA069002803DA27
:10045000404246F00106A061F00701D026F01006E8
:100460006C2D0BD0682D09D04C2D39D06A2D35D08C
:10047000742D35D07A2D33D016E038E0E1682F4660
:1004800020468847B842054609D16C2F26D04FF444
:100490008060E168064320468847054604E06C2FEB
:1004A0001AD04FF4807006430DB3A5F1410019280E
:1004B00002D8203546F400664A4629462046266082
:1004C0004E46FFF763FE80B101280BD0F61D26F0E3
:1004D000070000F1080956E74020E4E78020D8E74C
:1004E0000020D6E706F104094DE7284652E7206AC6
:1004F000BDE8F09F6A4000004FF0000200B51346CF
:1005000094469646203922BFA0E80C50A0E80C5033
:10051000B1F12001BFF4F7AF090728BFA0E80C50E4
:1005200048BF0CC05DF804EB890028BF40F8042BDD
:1005300008BF704748BF20F8022B11F0804F18BF4A
:1005400000F8012B704770477047704770B504463C
:1005500085690068C10601D5302600E02026C00765
:1005600007D070BDD4E9012130469047206A401C75
:1005700020626D1EF6D570BD70B5044685690078A1
:10058000C00707D170BDD4E9012120209047206A1F
:10059000401C20626D1EF6D570BD09684A0501D564
:1005A00040B27047C905FCD500B2704709684A05DA
:1005B00001D5C0B27047C905FCD580B270470000B4
:1005C0002DE9F0410646002410687529314616A52C
:1005D00010D0FFF7E2FF002802DA404213A507E03F
:1005E00031688A0701D512A502E0490704D511A593
:1005F000012401E0FFF7DAFF00210A2206F12407B7
:1006000009E0B0FBF2FCB0FBF2F302FB1C0030305F
:1006100078541846491C0028F3D123462A46304610
:10062000BDE8F04100F0C7BB000000002D00000055
:100630002B0000002000000011680268006A5305CA
:1006400001D508700AE0D30501D5088006E013063D
:1006500003D5C217C1E9000200E00860012070471D
:100660002DE9FF4F0C461E464FF0FF378BB0D2E905
:100670000001DDF860800A908A46C1F30A5505B989
:100680003D46002108464FF00000BAF1000F00F48B
:10069000400005DA00EB80004FF4400101EA500011
:1006A0004FEA9059B9F1010F00DDB9460A9850EAB6
:1006B0004A000ED044F61050A5F2FF3545432F14E2
:1006C000B8F1000F1ED07542291E1EDDC9F10002CF
:1006D0001CE0B8F1010F4FF0000001D0302103E021
:1006E000F24305E02154401CB042FBDB30460022BF
:1006F000002121540B99C1F80880C1E900200FB0F6
:10070000BDE8F08FBD1B6D1CDEE74A4600DA69428A
:1007100006A800F07DFD06AB93E8070003AB83E875
:10072000070050460A9902F051FF8DE80700A0F536
:1007300000501F3800900398002D0ADD42F21F017F
:100740004A460844002303A90390684603F0BAF917
:1007500009E0A0F500504A461F38002303A9039082
:10076000684603F0C4F98DE807000004000C03D0CC
:100770004FF0FF30410800E01046B8F1000F03D001
:100780000022009215461EE0751E05D400F0CEFA38
:10079000303262556D1EF9D5B3460122084302D0AE
:1007A00000227F1C04E02078302801D100227F1E27
:1007B000002A099784D01DE0112D07DA00F0B6FA5F
:1007C000303262556D1C50EA0102F5D1084302D067
:1007D0000098C8B10EE00021681E05E0235C625C51
:1007E00063542254401E491C8142F7DBAB46A81BD0
:1007F000401E0990002004F80B000B98099AC0F8DD
:100800000880C0E9002B7AE711264FF0000857E76F
:100810002DE9F04F88460446D21D22F0070191B021
:10082000D1E90001CDE90A0103F098FA02460B98DC
:10083000C00F01D02D2007E02068810701D52B20B3
:1008400002E0202101EAC000032A099001D0072A12
:1008500005DB03464146204600F084FC0BE120788E
:10086000800601D5E06900E00620B8F1650F8146F9
:1008700006D0B8F1660F18D0B8F1670F70D131E02B
:100880000020B9F1110F009001DB112301E009F103
:1008900001030AAA01A90CA8FFF7E2FEDDE90C702A
:1008A000002609F10105834647E001204B460090F0
:1008B0004FF000470AAA01A90CA8FFF7D1FEDDE915
:1008C0000DB00C995D46002610B909F101000D1814
:1008D000B9EB050003D4C0F1FF3609F10105A5EB22
:1008E00009002BE0B9F1010F01DA4FF001090020F6
:1008F000B9F1110F0090484601DD112300E00346D5
:100900000AAA01A90CA8FFF7ABFEDDE90C704D4661
:1009100000268346207800070AD4AB4500DA5D46FE
:1009200001A8012D04DD411911F8011C302907D05F
:100930004F4502DA17F1040F04DA012082460FE076
:100940006D1EEEE7002F02DCED1B3E4403E0781C39
:10095000A84200DD7D1CB81B00F1010A4FF00047E2
:100960002078000703D4AA4501DB4FF0FF3A0021AD
:10097000B7F1004F0DF143088DF8431024D0022049
:100980002B23002F01DA7F422D230A21021EA0F122
:10099000010000DC5FB197FBF1FC97FBF1F201FB7A
:1009A0001C7C17460CF1300C08F801CDEEE7A8F1DD
:1009B000010003702188090501D5452100E065216A
:1009C000A0F1010800F8011C09980FA9A1EB080784
:1009D000FF1D00B10120411901EBEA70A169384403
:1009E000081A401EA0612078C00602D42046FFF7F6
:1009F000ADFD099828B1D4E901219047206A401C37
:100A000020622078C00622D52046FFF79FFD1EE019
:100A1000002E04DBB34502DD01A8805D00E030203C
:100A2000D4E901219047206A401C2062761CAAF17B
:100A300001005FEA000A0AD100F074F9C068016899
:100A4000405CD4E901219047206A401C2062281EA6
:100A5000A5F10105DCDC07E0D4E9012118F8010B60
:100A60009047206A401C2062381EA7F10107F3DC82
:100A70002046FFF781FD032011B041E601694A1CC1
:100A800002610878704700B58FB0CDE901310021CF
:100A9000059105497944CDE9031011466846FFF7F1
:100AA00067FC0FB000BD0000E5FFFFFFD1E90023A8
:100AB0009A4202D2531C0B601070704710B5436904
:100AC00013B1AFF3008001E0FFF728FC012010BD57
:100AD000127800F124010A7000224A700122EDE729
:100AE00011684FF0FF32E9E72DE9FF5F15468A46AE
:100AF0000446DFF8AC80F8440027D8E900103E46F1
:100B0000CDE9001010E03AF816106A4602A800F08D
:100B1000F1FB411C07D02178890603D5E269391819
:100B200091420DD80744761C2078800602D5E069F2
:100B3000B84205DDAE42E6DB3AF816000028E2D105
:100B4000A069C01BA0612046FFF700FDD8E9001096
:100B5000CDE90010002017E03AF818106A4602A804
:100B600000F0C8FBB0F1FF3F81460BD000250DF12E
:100B7000080B05E0D4E901211BF8050090476D1C26
:100B80004D45F7D308F10100B0428046E4DB206A0E
:100B9000384420622046FFF7EFFCBDE8FF9F0000CD
:100BA000063900002DE9F0418046D21D22F00702EF
:100BB0000025D2E90002F52915A614D0011E72F114
:100BC000000106DA0023D0EB030063EB020211A65A
:100BD00008E0D8F800108B0701D50FA602E04907FE
:100BE00001D50EA601251146002408F1240704E0D2
:100BF00000F09CF830323A55641C50EA0102F7D1FB
:100C00002B46324621464046BDE8F04100F0D3B8BD
:100C1000000000002D0000002B000000200000005C
:100C200030B4002100F1240408E002F00705D208E6
:100C3000303542EA4372DB086554491C52EA030529
:100C4000F3D10468002310A2250708D504F020047E
:100C50000C4304D0C46901230CA2641EC46130BCDF
:100C600000F0A9B810B5044621461068FFF79EFCB5
:100C700002462046BDE810400023D1E7D21D22F0F5
:100C80000701D1E90023CBE700000000300000009D
:100C9000F0B40D460188090502D5214C7C4402E0E0
:100CA0001F4C7C440E34002100F1240608E002F0C1
:100CB0000F071209E75D42EA03721B097754491CCA
:100CC00052EA0307F3D102780023120704D5702DEE
:100CD00006D009B1022311342246F0BC00F06BB8F3
:100CE00001231034F8E770B504460D46214610681C
:100CF000FFF75CFC024629462046BDE87040002311
:100D0000C6E7D21D22F00703D3E90023C0E703683A
:100D1000126843F0200303600823C3610023B7E790
:100D200068370000004870473800002030B5B0F147
:100D30000A0271F100034FEA900E4EEA817EB0EB99
:100D40000E0061EB91014FEA101E4EEA017E10EB9E
:100D50000E0041EB11114FEA102E4EEA016E10EB1E
:100D60000E0041EB11214FEA104E4EEA014E10EBFE
:100D70000E0041EB1141401841F100014FEAD00053
:100D800040EA41704FEAD1014FEA810444EA90748D
:100D900010EB800544EB01046D1944EB0404521B75
:100DA000A3414FF0000348BF0A3200D530BD401CBC
:100DB00041F1000130BD2DE9F0470D4699469246BC
:100DC000044600F124080168880604D5E06921F092
:100DD0001001216000E00120A84201DD471B00E076
:100DE0000027A1697A1902EB0900081AA06120788E
:100DF000C00602D42046FFF7A9FB002608E0D4E98C
:100E000001211AF806009047206A401C761C2062D7
:100E10004E45F4DB2078C0060AD52046FFF796FB46
:100E200006E0D4E9012130209047206A401C20626E
:100E3000381EA7F10107F4DC07E0D4E9012118F816
:100E400005009047206A401C2062281EA5F101057C
:100E5000F3DC2046FFF790FB2078000602D5022045
:100E6000BDE8F0870120FBE72DE9F04F04460D4671
:100E7000D21D22F0070089B0D0E9009748463946D4
:100E800002F06CFF0246F80F01D02D2307E0206826
:100E9000810701D52B2302E0202101EAC0038DF850
:100EA00020300BB1012000E00020032A824601D04F
:100EB000072A04DB2946204600F054F93FE1207858
:100EC000800601D40D2500E0E569C7F30A560D2D13
:100ED00049DA00214FEA175B08464FF00000002F67
:100EE00000F4400007DA00EB80004FF4400100EB13
:100EF000D07001EA60008115012901DD4FF0FF315A
:100F000000224FEA850CBCF1180F06D31346ACF152
:100F100018004FF08052C24003E04FF4801323FAD0
:100F20000CF30CF10C0CBCF1200F04D3ACF1200C31
:100F300009FA0CF001E007FA0CF000294FF0004824
:100F400001DD18B90FE00ED140450CD319EB0209B1
:100F50005F4121B9404502D19F4329EA0209BBEB19
:100F6000175F00D0761C2088000502D57B487844A6
:100F700002E07A487844193808AA302302F80A3087
:100F8000037C0AF10101002E0AF1020A53546A4659
:100F900002DC4FF0300101E04FF031014FF0010869
:100FA0008DF8001002D0A6F2FF3603E059EA47019F
:100FB00000D06B4E002D02DC2178090704D54FF0DC
:100FC00002082E218DF80110C44600210BE0C7F362
:100FD00003433F01C35C491C6D1E02F8083005291C
:100FE00008F1010801DA002DF1DC00210CE000EB32
:100FF0001973491C1B786D1E082902F808304FEA46
:10100000091908F1010801DA002DF0DC21688B06CE
:1010100002D516E0A8F10108E04505DD02EB080362
:1010200013F8013C302BF5D0B8F1000F09DD02EBCD
:10103000080313F8013C2E2B03D1090701D4A8F1B2
:101040000108002D05DD3E2102F808106D1E08F193
:101050000108407C002E02F8080008F1010804DABB
:101060002D20764202F8080002E02B2002F808004A
:101070000A214FF47A70864208F101080BDB96FBD7
:10108000F0F3303302F8083096FBF0F308F1010872
:1010900000FB136601E0642E0CDB642096FBF0F38A
:1010A000303302F8083096FBF0F308F1010800FB3A
:1010B000136601E00A2E06DB96FBF1F0303002F8F1
:1010C000080008F1010896FBF1F001FB10603030D8
:1010D00002F80800A16908F1010808EB050202EB1B
:1010E0000A00081AA0612078C00602D42046FFF743
:1010F0002DFA216A08AE01EB0A00206204E0D4E96F
:10110000012116F8010B9047BAF1010AF7D22078B5
:10111000C00602D52046FFF719FA6E4609E016F818
:10112000010B3E280FD0D4E901219047206A401CD2
:101130002062B8F10108F2D22046FFF71DFA09B08B
:101140000320BDE8F08F206A2844206203E0D4E940
:101150000121302090476D1EEBD3F8E7D134000019
:1011600002FCFFFF2DE9F0411F46044603260168FB
:10117000072A01F4006004DB08B116A505E016A5F6
:1011800003E008B115A500E015A521F010002060CE
:10119000A069C01EA0610FB1401EA0612046FFF7EC
:1011A000D5F94FB1D4E9012138469047206A401C57
:1011B0002062C01C206206E0206AFAE7D4E901211F
:1011C00015F8010B9047761EF8D22046FFF7D4F9A8
:1011D000BDE8F0814E414E006E616E00494E460002
:1011E000696E660010B5436913B1AFF3008001E08A
:1011F000FFF77AFC012010BD128800F124018284DF
:101200000022C2840122EDE711684FF0FF32E9E7C6
:101210002DE9F047814616468AB0354878440DC816
:101220008DE80D0032487844801C03AC0DC884E87A
:101230000D0041F69B300844372190FBF1F290FB02
:10124000F1F5A5F1800501FB12041B3C02D56442B7
:10125000012000E00020DFF898A080460027FA4433
:10126000AAF1BE0A0EE0E0070AD03246684607EB54
:10127000470101230AEB810102F039FC8DE80700E8
:1012800064107F1C002CEED1194F7F44AE3F19E053
:10129000E80715D007EB04100DF1180A90E80E00CE
:1012A0008AE80E00C068F04201D1981908903246D1
:1012B000012306A903A802F01AFC03AB83E8070088
:1012C0006D10641C002DE3D14FF0010332466946D6
:1012D000B8F1000F03A802D002F0F4FB01E002F025
:1012E00006FCC9E90001C9F808200AB0BDE8F0878A
:1012F000B43200002DE9F04116460C46054600F0D8
:1013000047F8036893F80101012807D0FF2C12D891
:10131000185D80B101202C70BDE8F081D3F8070181
:101320003246214603F20713C7182846BC46BDE8DB
:10133000F041002360474FF0FF30EDE70048704771
:10134000180000207546FFF7F9FFAE460500694614
:10135000534620F00700854618B020B5FEF78EFFF3
:10136000BDE820404FF000064FF000074FF00008A6
:101370004FF0000BAC46ACE8C009ACE8C009ACE8E3
:10138000C009ACE8C00921F007018D467047000094
:1013900010B5FFF7C7FC001D10BD00BF252A0000D7
:1013A00010B50446AFF300802046BDE81040FEF7BC
:1013B00050BF00004FF0013C50F8042B51F8043BA3
:1013C0009A4221D1A2EB0C03934313EACC1317D119
:1013D00050F8042B51F8043B9A4215D1A2EB0C03B0
:1013E000934313EACC130BD150F8042B51F8043B70
:1013F0009A4209D1A2EB0C03934313EACC13DBD03E
:101400004FF00000704700BFD01A01BAB1FA81F165
:1014100001F0180122FA01F0CB40DBB2C0B2C01AD1
:10142000C1F120012CFA01F3D11A914311EAC31141
:10143000E6D1704701491820ABBEFEE72600020046
:101440007047000080B58AB002F0D6FC84460B4697
:101450000DA202A82021CDE900C3FEF73FFF411EE7
:101460001E2982BF40F60D20ADF826001F2082B253
:1014700040F20810C2F2000002A94FF0FF3301F061
:101480004BFC0AB080BD00BF252E32660D0A00005D
:10149000FEE7000040F2C400C2F2000000F088B88D
:1014A00070470000EFF3108072B600BFFEE7000047
:1014B000014690F82100022816D10868D1E90FC32F
:1014C000026822F00E020260026822F0010202604D
:1014D000012000FA03F2CCF8042081F8210000205A
:1014E000002281F820207047042088630120002218
:1014F00081F820207047000090F82110022923D1A4
:10150000026840F2040C1168C4F2020C21F00E01D2
:10151000116013682F21C4F202018A4223F00103F3
:10152000136015DD3023C4F202039A421CD0442319
:10153000C4F202039A421BD05823C4F202039A4217
:101540001CD14FF4803321E00421816301207047D6
:101550000823C4F202039A420ED01C23C4F20203F1
:101560009A420BD1102311E04FF480730EE000BFBC
:101570004FF480530AE000BF012307E00CF168013B
:101580004FF080738A4208BF4FF480130121CCF8DA
:10159000003080F82110416B0022002980F82020C3
:1015A00004BF0020704780B58847002080BD000040
:1015B00010B5D0E90FCE0168DCF800300A6823FAD4
:1015C0000EF35C072AD512F0040427D00A689206AD
:1015D00003D40A6822F004020A602F22C4F2020235
:1015E000914240F20402C4F202025BDD3023C4F2F5
:1015F0000203994272D04423C4F20203994273D089
:101600005823C4F20203994240F07A804FF48023B9
:101610001360C16A002940F098806FE09C0727D5CD
:1016200012F0020424D00A68920606D40A6822F056
:101630000A020A60012280F821202F22C4F202024D
:10164000914240F20402C4F202023BDD3023C4F2B4
:101650000203994260D04423C4F2020399425FD04E
:101660005823C4F20203994260D14FF4003365E07D
:101670001B0743D512F0080208BF10BD0A6822F00C
:101680000E020A60012101FA0EF2CCF804208163F7
:1016900080F82110016B0022002980F8202054D10D
:1016A0002CE000BF0823C4F20203994222D01C237D
:1016B000C4F20203994223D140231360C16A002976
:1016C00043D11BE00823C4F2020399422CD01C230F
:1016D000C4F20203994229D120232FE04FF4806302
:1016E0001360C16A89BB09E04FF480431360C16A8B
:1016F00059BB03E004231360C16A31BB10BD00BFB6
:1017000002F168044FF08063A14208BF4FF48003E8
:101710001360C16AC9B9F1E74FF400730EE000BF6E
:101720004FF400530AE000BF022307E002F168040F
:101730004FF00073A14208BF4FF400131360816A99
:101740000022002980F82020D8D0BDE810400847AA
:10175000014600284FF0010008BF70472DE9F04313
:10176000D1F800C04FF6F873CBF6FD734CF6CD42BE
:101770006344CCF6CC42A3FB02236FF0030202EADF
:1017800093020023C4F2020301F10C08C1E90F32F5
:101790000222D1E9019E98E8F00181F82120DCF8CD
:1017A000002043F6F0739A4342EA090242EA0E022D
:1017B00022432A4332433A4342EA0802CCF800204B
:1017C00000228A6381F8210081F820200020BDE8F2
:1017D000F043704790F820C0BCF1010F04BF022015
:1017E0007047F0B54FF0010E80F820E090F821C06E
:1017F000BCF1010F26D14FF0020C80F821C04FF050
:10180000000CC0F838C0D0E900C4C56AC66BDCF86B
:101810000070102C27F00107CCF80070006C0EFA55
:1018200000F070600846CCF8043004BF10460A4649
:10183000CCF80800CCF80C20DCF8000045B140F0F2
:101840000E000DE0002180F820100220F0BD00BF46
:1018500020F00400CCF80000DCF8000040F00A00A2
:10186000CCF80000DCF8000040F00100CCF80000EB
:101870000020F0BDB0B5044600F018F9054640F26E
:101880000800C2F200000078611C18BF044400BFC9
:1018900000F00CF9401BA042FAD3B0BD2DE9F04F87
:1018A00082B00E68002E00F0FD8041F20042C4F2CA
:1018B0000102042340F2004E904208BF03234FF67A
:1018C000FF7CC4F2010E009300240123C1F2100C2E
:1018D0004FF0000A4FF000094BE000BF41F2000258
:1018E000C4F20102009F904208BF022704F00C03DB
:1018F0000F229A402BEA020207FA03F34FEA9A05F5
:101900001A4346F825204E6840F20C45F202DEF8F4
:10191000082054BF22EA080242EA0802C4F2010584
:10192000CEF808202A68B30254BF22EA080242EA2D
:1019300008022A60B303DEF8042054BF22EA08023A
:1019400042EA0802F303CEF80420DEF800204FF04C
:10195000010354BF22EA080242EA0802CEF800203E
:101960000E680AF1010A36FA0AF204F1040400F0E2
:10197000998003FA0AFB16EA0B08F1D04E68664517
:1019800012DC122E56D8DFE806F0350B4D495555BE
:10199000555555555555555555555545510000BF4B
:1019A000D1F80C9046E000BF4FF6FF72C1F2210261
:1019B00096420FDC0022C1F2110296421AD0002298
:1019C000C1F21202964215D00022C1F221029642C3
:1019D00010D02FE00022C1F2220296420AD000224B
:1019E000C1F23102964205D00022C1F23202964283
:1019F00020D100BF8A684AB1012A14BFC0F814B0D0
:101A0000C0F810B04FF0080914E000BF4FF004090F
:101A100010E000BFCA6802F104090BE04FF00009B2
:101A200008E000BFCA6802F1080903E0CA6802F1D1
:101A30000C0900BF02462646B8F5807F24BF043259
:101A4000203E17680F25B54027EA050509FA06F676
:101A500035431560CA79D2067FF582AF41F218038B
:101A6000C4F202031A68AEF57E7642F001021A60F3
:101A70001A6802F001020192019A2AF0030256F854
:101A800002B040F60002C4F20102904208D040F6D3
:101A90000042C4F2010290427FF420AF012725E703
:101AA000002723E702B0BDE8F08F000040F2541099
:101AB000C2F200000068704740F2080040F2541182
:101AC000C2F20000C2F2000100780A681044086007
:101AD0007047000080B542F20000C4F202000168C5
:101AE00041F010010160032000F08CF80F2000F09D
:101AF00005F800F027F8002080BD000070B540F226
:101B00000806C2F2000640F210013278C2F200016B
:101B10004FF47A730968B3FBF2F20446B1FBF2F1B9
:101B2000084600F085FB0F2C4FF0010508D838B9A6
:101B30004FF0FF3021460022002500F037F8746096
:101B4000284670BD82B041F21800C4F2020001685C
:101B5000042241F001010160016801F001010191DD
:101B60000199416841F080514160406800F0805027
:101B7000009000980420C4F20100016862F31A6129
:101B8000016002B070470000002848BF704700F0B5
:101B90001F01012202FA01F11C2202EAD0004EF2DA
:101BA0000012CEF2000281507047000010B54EF6D0
:101BB0000C5CCEF2000CDCF80030C3F3022E8EF089
:101BC0000704042C28BF0424BEF103034FF0FF3E9A
:101BD0000EFA04F438BF0023A14399400EFA03F330
:101BE0009A43114300F00F0200F160430901043AE7
:101BF00003F564436244002848BF02F10C031970E6
:101C000010BD00004EF60C51CEF200010A684FF6EE
:101C1000FF031A4060F30A2242F0806040F0FD703A
:101C200008607047002804BF012070472DE9F04389
:101C300081B042F20008C4F202080446D8F800005D
:101C40000D4600F0070081420CD9D8F8000020F0C2
:101C500007002843C8F80000D8F8000000F007008B
:101C6000A8426CD1206841F204098107C4F202093C
:101C700017D5410705D5D9F8001041F4E061C9F83E
:101C80000010010705D5D9F8001041F46051C9F8DA
:101C90000010D9F80010A26821F0F0011143C9F832
:101CA0000010C00742D1D8F8000000F007008542BC
:101CB0000CD2D8F8000020F007002843C8F8000034
:101CC000D8F8000000F00700A84238D1206841078A
:101CD00007D5D9F80010E26821F4E0611143C9F892
:101CE0000010000708D5D9F80000216920F46050E1
:101CF00040EAC100C9F80000D9F8002002F00C0049
:101D0000082841F20020C0F27A004DD144F2065377
:101D1000C2F38341C0F60003595CD20338D440F6C5
:101D20000010C0F23D0048433EE000BF606859F833
:101D3000041C022808D0012826D1890306D40120DA
:101D400001B0BDE8F08300BF8901F8D5D9F80010D3
:101D500021F003010843C9F80000FFF7A7FE06467B
:101D600041F28837D9F80000616800F00C00B0EB50
:101D7000810F98D0FFF79AFE801BB842F2D903205A
:101D800001B0BDE8F08300BF8907D8D5DEE700BF0A
:101D9000D9F8002044F20453C2F34042C0F60003D5
:101DA0009A5C4843B0FBF2F0D9F8001044F2EC42E0
:101DB000C1F30311C0F60002515C40F2100220FA98
:101DC00001F140F20C00C2F200000068C2F2000211
:101DD0001160FFF793FE002001B0BDE8F083000022
:101DE00040F2100041F20401C2F20000C4F202010C
:101DF0000068096844F2FC42C1F30221C0F6000207
:101E0000515CC8407047000040F2100041F20401EC
:101E1000C2F20000C4F202010068096844F2FC4208
:101E2000C1F3C221C0F60002515CC84070470000F7
:101E3000002804BF012070472DE9F04182B004461C
:101E4000007841F20006C007C4F202060CD07068A8
:101E500000F00C00042840F081803068800303D536
:101E60006068002800F04681207880071BD57068E4
:101E700010F00C0F09D0706800F00C00082840F03A
:101E800087807068C00300F183803068800703D5C5
:101E90002069012840F02E813068616920F0F80047
:101EA00040EAC10030602078000713D42078400752
:101EB0002CD4E569002D00F01881706800F00C004A
:101EC000082840F0A780012D40F00481012002B0D5
:101ED000BDE8F081A069002800F084800020C4F2F1
:101EE00042200121C0F88014FFF7E0FD054600BF45
:101EF000706A800700F1B280FFF7D8FD401B02280E
:101F0000F6D9032002B0BDE8F08100BFF0695FEAB6
:101F1000C00808D4F06940F08050F061F06900F02A
:101F200080500090009847F20007C4F2000738681C
:101F3000C00549D4386840F480703860FFF7B6FDBA
:101F4000054600BF3868C0053ED4FFF7AFFD401B13
:101F50006428F7D9032002B0BDE8F081706800F072
:101F60000C00082803D17068C0033FF576AF6168A4
:101F70003068002900F00C81B1F5A02F00F000813D
:101F8000B1F5803F40F01A8140F480301CE100BF81
:101F90002069002840F20000C4F2422000F088804E
:101FA00001210160FFF782FD054600BF3068800710
:101FB0003FF572AFFFF77AFD401B0228F6D90320E8
:101FC00002B0BDE8F08100BFE168306A002900F08E
:101FD0009D80052900F09280012940F0AF8040F0FB
:101FE0000100B1E00020C4F242200021C0F88014BA
:101FF000FFF75CFD054600BF706A80077FF556AFAE
:10200000FFF754FD401B0228F6D9032002B0BDE8BB
:10201000F08100BF0027C4F2422700203866FFF796
:1020200045FD022D05460DD13068800140F1DE806E
:10203000FFF73CFD401B02284FF00300F4D902B02B
:10204000BDE8F081306880014FD5FFF72FFD401BC0
:1020500002284FF00300F5D9F1E700BF40F210006D
:10206000C2F20000006844F6D351C1F26201A0FB45
:102070000101480A019000BF00BF0198411E0028DD
:1020800001913FF413AF00BF0198411E0028019158
:102090003FF40CAF00BF0198411E002801913FF4AE
:1020A00005AF00BF0198411E00280191E4D1FDE673
:1020B00000210160FFF7FAFC054600BF3068800789
:1020C0007FF5F1AEFFF7F2FC401B02284FF0030052
:1020D000F4D9B4E77068216A00F480328A4209D1E9
:1020E000616A00F47010884204D1002002B0BDE89B
:1020F000F08100BF012002B0BDE8F08140F0040093
:102100003062306A40F001001EE000BF20F00100A4
:102110003062306A20F004003062FFF7C7FC0546E9
:1021200041F28837306A800720D5FFF7BFFC401B9B
:10213000B8424FF00300F5D981E700BF20F001005D
:102140003062306A20F004003062FFF7AFFC0546D1
:1021500041F28837306A800708D4FFF7A7FC401B9C
:10216000B842F7D9032002B0BDE8F081B8F1000F02
:102170003FF59FAEF06920F08050F06199E600BF16
:1021800040F480203060306840F480301CE000BFB4
:1021900020F480303060306820F480203060FFF719
:1021A00085FC0546306880037FF55EAEFFF77EFC58
:1021B000401B64284FF00300F4D940E720F480303E
:1021C0003060306820F480203060FFF76FFC0546F7
:1021D000306880033FF548AEFFF768FC401B642879
:1021E000F6D9032002B0BDE8F08100BF206AB0F547
:1021F000803F05D17168A26821F4003111437160FC
:102200007168626A21F474111143084370600120FF
:102210003866FFF74BFC0446306880013FF565AF38
:10222000FFF744FC001B02284FF00300F4D906E737
:10223000411E0020B0EB116F1CBF012070474EF211
:102240001002CEF2000251604EF62351CEF2000190
:10225000F0230B70072190601160704770470000F9
:1022600010B504460068416994F84120212A56D1EE
:1022700011F0800153D000BF206850E8050F21689D
:1022800020F0800041E80502DAB1206850E8050F2F
:10229000216820F0800041E8050292B1206850E8F2
:1022A000050F216820F0800041E805024AB120684E
:1022B00050E8050F216820F0800041E80502002A5F
:1022C000DAD1A06B002818BFFFF7F2F8206850E8B9
:1022D000030F216820F0C00041E80302DAB1206852
:1022E00050E8030F216820F0C00041E8030292B1DA
:1022F000206850E8030F216820F0C00041E8030285
:102300004AB1206850E8030F216820F0C00041E87E
:102310000302002ADAD1202084F8410020684069B5
:1023200094F84210222940F0A78010F0400000F0FD
:10233000A38000BF206850E8050F216820F040000E
:1023400041E80502DAB1206850E8050F216820F065
:10235000400041E8050292B1206850E8050F21686D
:1023600020F0400041E805024AB1206850E8050F1E
:10237000216820F0400041E80502002ADAD1E06B34
:10238000002818BFFFF794F8206850E8030F216871
:1023900020F4907041E80302BAB3206850E8030FBC
:1023A000216820F4907041E8030272B3206850E87D
:1023B000030F216820F4907041E803022AB32068DB
:1023C00050E8030F216820F4907041E80302002ACE
:1023D000DAD11AE0206850E8050F216820F00100EA
:1023E00041E80502DAB1206850E8050F216820F0C5
:1023F000010041E8050292B1206850E8050F21680C
:1024000020F0010041E805024AB1206850E8050FBC
:10241000216820F0010041E80502002ADAD1206B92
:10242000012824D1206850E8030F216820F0100013
:1024300041E80302DAB1206850E8030F216820F078
:10244000100041E8030292B1206850E8030F2168B0
:1024500020F0100041E803024AB1206850E8030F61
:10246000216820F0100041E80302002ADAD1202080
:1024700084F8420000202063002010BD7047000057
:10248000B0B582B001680A68CC684B6902F02F05CC
:10249000202D04F0200505D125B102B0BDE8B040E3
:1024A00000F04ABF5FEA027C1EBF03F0010E04F495
:1024B000907313EB0E0341D1036BD50618D5012B96
:1024C00016D114F0100313D0002201920A68019271
:1024D0004A680192019A496949064BD4818DC28D9F
:1024E000C38D002B18BF914240F0F48102B0B0BD03
:1024F00013062DD514F080032AD090F84120212A0C
:10250000F4D18268B2F5805F03D10269002A00F03D
:102510006782026A531C036212784A60C28C013AD5
:102520001304C284E2D1C86820F08000C860C86883
:1025300040F04000C86002B0B0BD00BFD30718BF74
:1025400014F4807340F0D080530700F1D380D8E0BA
:102550005206CBD514F04002C8D0CA6822F040021F
:10256000CA60202180F8411002B0BDE8B04000F000
:102570009DBC00BFC16B0A68526893B2002BB5D0F6
:10258000858DAB42B2D2C2858969202900F0A18035
:10259000016851E8031F026821F4807142E80313C7
:1025A000DBB1016851E8031F026821F4807142E841
:1025B000031393B1016851E8031F026821F480718D
:1025C00042E803134BB1016851E8031F026821F48C
:1025D000807142E80313002BDAD1016851E8051F2E
:1025E000026821F0010142E80513C3B3016851E814
:1025F000051F026821F0010142E805137BB3016861
:1026000051E8051F026821F0010142E8051333B3C8
:10261000016851E8051F026821F0010142E8051335
:10262000002BDAD11BE000BF016851E8051F0268EA
:1026300021F0400142E80513DBB1016851E8051FB4
:10264000026821F0400142E8051393B1016851E8A6
:10265000051F026821F0400142E805134BB10168F3
:1026600051E8051F026821F0400142E80513002BE4
:10267000DAD1202180F8421000210163016851E87D
:10268000031F026821F0100142E80313DBB1016867
:1026900051E8031F026821F0100142E8031393B1CF
:1026A000016851E8031F026821F0100142E803139A
:1026B0004BB1016851E8031F026821F0100142E8A4
:1026C0000313002BDAD1C16B04460846FEF7F0FE77
:1026D000204602214163818DC28D891A89B202B0E0
:1026E000BDE8B040FFF7BABD436C43F0010343645B
:1026F000530706D5BEF1000F03D0436C43F002032D
:102700004364930706D5BEF1000F03D0436C43F03A
:1027100004034364BCF1000F06D55EEA050303D051
:10272000436C43F008034364436C002B3FF4DEAE7C
:10273000920605D525B1044600F0FEFD216820462D
:102740004969426C01F0400102F00802891800F06A
:10275000B98000BF016851E8031F026821F490713D
:1027600042E80313BBB3016851E8031F026821F478
:10277000907142E8031373B3016851E8031F0268C4
:1027800021F4907142E803132BB3016851E8031F51
:10279000026821F4907142E80313002BDAD11AE0A9
:1027A000016851E8051F026821F0010142E80513A4
:1027B000DBB1016851E8051F026821F0010142E820
:1027C000051393B1016851E8051F026821F001016A
:1027D00042E805134BB1016851E8051F026821F07A
:1027E000010142E80513002BDAD1016B012924D144
:1027F000016851E8031F026821F0100142E8031349
:10280000DBB1016851E8031F026821F0100142E8C2
:10281000031393B1016851E8031F026821F010010E
:1028200042E803134BB1016851E8031F026821F02D
:10283000100142E80313002BDAD1202180F8421066
:102840000021016301684969490640F1C3800168BC
:1028500051E8051F026821F0400142E80513DBB191
:10286000016851E8051F026821F0400142E80513A4
:1028700093B1016851E8051F026821F0400142E868
:1028800005134BB1016851E8051F026821F04001B2
:1028900042E80513002BDAD1C16B002900F09A80C1
:1028A00043F23902C0F60002044608464A63FEF7C6
:1028B00023FE00283FF41AAEE06B416B02B0BDE886
:1028C000B04008470446FFF7D9FD0020606402B01D
:1028D000B0BD00BF891A00BF026852E8032F036829
:1028E00022F4907243E80325BDB3026852E8032F37
:1028F000036822F4907243E8032575B3026852E836
:10290000032F036822F4907243E803252DB3026875
:1029100052E8032F036822F4907243E80325002D48
:10292000DAD11AE0026852E8052F036822F00102AA
:1029300043E80525DDB1026852E8052F036822F05F
:10294000010243E8052595B1026852E8052F0368A6
:1029500022F0010243E805254DB1026852E8052F37
:10296000036822F0010243E80525002DDAD1202278
:1029700080F8422000220263026852E8032F0368B5
:1029800022F0100243E80325DDB1026852E8032F6C
:10299000036822F0100243E8032595B1026852E86B
:1029A000032F036822F0100243E803254DB10268AB
:1029B00052E8032F036822F0100243E80325002D9C
:1029C000DAD1022289B2426302B0BDE8B040FFF71B
:1029D00045BC00BF02B0BDE8B040FFF74FBD00BF2F
:1029E000026A32F8023B6FF35F234B60026295E5A7
:1029F000002804BF0120704710B5044690F841003C
:102A000028B9002084F84000204600F063F8242014
:102A100084F841002068D4E90212C36823F400530B
:102A2000C360036923F440531A430261D4E90423C9
:102A30001143C268194341F20C639A431143C160C8
:102A40004169A26921F44071114343F60002C4F2C6
:102A500001029042416103D0FFF7C2F902E000BFDA
:102A6000FFF7D2F9D4E90023192148439900B0FBBC
:102A7000F1F048F21F5CC5F2EB1CA0FB0C314FF6E5
:102A80009C734909C0F6FF7301FB0300322303EB7B
:102A90000010A0FB0C03F02000EA531000EB011023
:102AA000C3F34311084490601069202120F4904042
:102AB0001061506920F02A005061D06840F4005045
:102AC000D0600020606484F8411084F84210606394
:102AD00010BD00002DE9F04186B040F60005044627
:102AE000C4F20105006805F54051002788420597AA
:102AF000CDE90377029703D006B0BDE8F08100BFAF
:102B000041F21806C4F2020630680DF1080840F4DC
:102B1000804030603068414600F480400190019868
:102B2000306840F004003060306800F0040001902C
:102B300001984FF40070029002200390032005904A
:102B40002846FEF7ABFE4FF48060CDE90207284629
:102B500041460497FEF7A2FE40F2C405A6F57C604C
:102B6000C2F2000580214FF48052C5E900072846D3
:102B7000C5E90271C5E90477C5E90672FEF7E8FD0B
:102B8000002818BFFEF78EFC252000210022E563F7
:102B90006C62FFF70BF82520FEF7F6FF06B0BDE8E4
:102BA000F081000090F84230202B0BD194460A4669
:102BB00000294FF0010118BFBCF1000F06D10846F3
:102BC000704700BF02210846704700BF70B582B051
:102BD0000025222105638262A0F82CC0456480F89C
:102BE00042100168C36B43F2C11443F2213E43F229
:102BF0004506C0F60004C0F6000EC0F60006C3E9A4
:102C00000A4EC3E90C650431044618466346FEF7D4
:102C1000E1FD0195216820460A6801924968019109
:102C20000199216931B300BF016851E8031F0268AF
:102C300041F4807142E80313E3B1016851E8031FD6
:102C4000026841F4807142E803139BB1016851E8C6
:102C5000031F026841F4807142E8031353B1016815
:102C600051E8031F026841F4807142E80313002B0E
:102C7000DAD100BF016851E8051F026841F0010187
:102C800042E80513BBB3016851E8051F026841F033
:102C9000010142E8051373B3016851E8051F02689A
:102CA00041F0010142E805132BB3016851E8051F0B
:102CB000026841F0010142E80513002BDAD11AE065
:102CC000016851E8051F026841F0400142E8051320
:102CD000DBB1016851E8051F026841F0400142E89C
:102CE000051393B1016851E8051F026841F04001E6
:102CF00042E805134BB1016851E8051F026841F035
:102D0000400142E80513002BDAD1002002B070BD6B
:102D100070470000704700002DE9F04381B0044681
:102D200090F84100202809D100294FF0010018BF78
:102D3000002A07D101B0BDE8F08300BF022001B036
:102D4000BDE8F0830020606421201D460E4684F813
:102D500041001746FEF7AAFEA784E784A1688146D2
:102D6000B1F5805F02D1206900285DD03746002090
:102D7000E28C2168002A5DD06A1C24D0002D4AD044
:102D8000804600BF0868000608D4FEF78FFEA0EB5F
:102D90000900A8427AD82168C868F3E717B117F884
:102DA000010B04E038F8020B00276FF35F20486046
:102DB000E08C0138E084E08C0028E3D13AE000BFE9
:102DC0000A68120609D40A68120606D40A681206AE
:102DD0005CBF0A685FEA0262F2D51FB117F8012BE7
:102DE00005E000BF30F8022B00276FF35F224A6036
:102DF000E28C013AE284E28C002AE4D11AE000BFBE
:102E000030F8022B00276FF35F224A60E28C013A10
:102E1000E284E28C72B10A68120635D5002FEFD039
:102E200017F8012BF1E700BF00273046E28C21683C
:102E3000002AA1D1086840061ED42DB3681C14D105
:102E4000086840062AD40868400627D40868400667
:102E500024D4086840064FF00000F1D50DE000BF13
:102E60002068C1680068400618D4FEF71FFEA0EB7A
:102E70000900A842F4D909E00020202184F841107B
:102E800001B0BDE8F08300BFFEF710FE0320202153
:102E900084F8411001B0BDE8F08300BF002020217C
:102EA00084F8411001B0BDE8F083000070470000D5
:102EB000FEE7000082B02DE9F041A4B003282A9279
:102EC0002B9352D80C460546FEF7F0FD01F04EF963
:102ED0000021C4F27A4101F053F826A151F825608F
:102EE00000F08AFF0DF1100805460F4625A2404666
:102EF00080213346CDE90057FDF7F0F9002834D49E
:102F00000646802822BF00208DF88F007F262AAB3E
:102F100008EB0600C6F1800122460393FDF7C0F9D5
:102F2000002822D43044802804D300208DF88F005C
:102F300011E000BF7D2809D840F60D2128F80010C7
:102F40000230002108F8001006E000BF7E2804BF10
:102F50000A20ADF88E007F2082B240F20810C2F243
:102F6000000004A96423FFF7D7FE24B0BDE8F041B8
:102F700002B0704716450008234500081C450008AC
:102F80002A45000825735B252E31665D0000000090
:102F900080B582B041F21400C4F202000168002240
:102FA00041F0010101600068002100F00100019082
:102FB00001980F20FEF7FAFD0F2002B0BDE8804017
:102FC000FEF7E2BD81B041F21800C4F202000168D0
:102FD00041F004010160006800F0040000900098D6
:102FE00001B0704780B540F2081043F60001C2F20C
:102FF0000000C4F2010100234FF00C0C4FF4E13249
:1030000080E80E00C0E90333C0E905C3C361FFF7E0
:10301000EFFC002808BF80BDBDE88040FEF742BA43
:10302000FEE70000FEE70000704700007047000068
:10303000FEF742BD70470000406A0021C185C1848F
:10304000FFF71CBA406A01684A6990F84130212BA9
:103050002DD112F080022AD00021C184016851E8EC
:10306000031F026821F0C00142E80313DBB10168CD
:1030700051E8031F026821F0C00142E8031393B135
:10308000016851E8031F026821F0C00142E8031300
:103090004BB1016851E8031F026821F0C00142E80A
:1030A0000313002BDAD1202180F84110016849690F
:1030B00090F84220222A40F07D8011F0400179D022
:1030C0000021C185016851E8031F026821F4907155
:1030D00042E80313BBB3016851E8031F026821F4FF
:1030E000907142E8031373B3016851E8031F02684B
:1030F00021F4907142E803132BB3016851E8031FD8
:10310000026821F4907142E80313002BDAD11AE02F
:10311000016851E8051F026821F0010142E805132A
:10312000DBB1016851E8051F026821F0010142E8A6
:10313000051393B1016851E8051F026821F00101F0
:1031400042E805134BB1016851E8051F026821F000
:10315000010142E80513002BDAD1016B012924D1CA
:10316000016851E8031F026821F0100142E80313CF
:10317000DBB1016851E8031F026821F0100142E849
:10318000031393B1016851E8031F026821F0100195
:1031900042E803134BB1016851E8031F026821F0B4
:1031A000100142E80313002BDAD1202180F84210ED
:1031B00000210163416C41F010014164FFF75EB9E9
:1031C0000168406A0968890600F19F800021C18575
:1031D000016851E8031F026821F4807142E803137B
:1031E000E3B1016851E8031F026821F4807142E8ED
:1031F00003139BB1016851E8031F026821F4807139
:1032000042E8031353B1016851E8031F026821F437
:10321000807142E80313002BDAD100BF016851E846
:10322000051F026821F0010142E80513BBB30168E4
:1032300051E8051F026821F0010142E8051373B34C
:10324000016851E8051F026821F0010142E80513F9
:103250002BB3016851E8051F026821F0010142E823
:103260000513002BDAD11AE0016851E8051F026846
:1032700021F0400142E80513DBB1016851E8051F68
:10328000026821F0400142E8051393B1016851E85A
:10329000051F026821F0400142E805134BB10168A7
:1032A00051E8051F026821F0400142E80513002B98
:1032B000DAD1202180F84210016B012925D100BF0D
:1032C000016851E8031F026821F0100142E803136E
:1032D000DBB1016851E8031F026821F0100142E8E8
:1032E000031393B1016851E8031F026821F0100134
:1032F00042E803134BB1016851E8031F026821F053
:10330000100142E80313002BDAD100214163016B65
:10331000012918BFFFF7FCBC818DFEF79FBF00009D
:10332000406A01214163016B012918BFFFF7F2BC1C
:10333000818D4908FEF792BF81B090F84210222992
:1033400021D183680246B3F5805F09D152F8281F66
:1033500052F8183C002B63D003685B680AE000BF9A
:1033600052F8281F13B90369002BF5D003685B6876
:1033700003F07F030B70116801311160C18D0139B9
:103380000A04C18502D001B0704700BF0168CA6855
:1033900022F02002CA60CA6822F48072CA604A69B8
:1033A00022F001024A61202180F84210002141638D
:1033B000026B012A3CD10163016851E8031F0268D6
:1033C00021F0100142E80313DBB1016851E8031F4B
:1033D000026821F0100142E8031393B1016851E83B
:1033E000031F026821F0100142E803134BB101688A
:1033F00051E8031F026821F0100142E80313002B7B
:10340000DAD101680A68D20606D5002200920A685D
:103410000092496800910099818D01B0FEF71EBFAE
:10342000026852686FF35F2221F8022B8162A5E7E0
:1034300001B0FFF76DBC0000B0B582B040F20814D7
:10344000C2F2000420680168C90621D5002101915B
:1034500001680191406801900198E06B006845683F
:103460002046FEF7FDFE40F25011C5F14000C2F2C9
:103470000001088040F27800C2F2000001210170D2
:1034800040F28401C2F2000120464022FFF78AFB8D
:1034900040F20810C2F2000002B0BDE8B040FEF7F2
:1034A000EFBF0000FEE7000090B0FEF713FB06AC94
:1034B000201D2421FDF720F80220069001200A900B
:1034C00010200B90002520460D95FEF7B1FC28B189
:1034D000EFF3108072B600BFFEE700BF0F20CDE90A
:1034E000010501A80021CDE903550595FEF79AFBDA
:1034F00020B1EFF3108072B6FEE700BFFFF762FD68
:10350000FFF746FDFFF76EFD40F2780740F208181E
:10351000C2F20007C2F2000807F10C014046402247
:10352000FFF740FBD8F8000041F6B863C168C4F269
:10353000090341F01001C1601EA101204FF0C042FB
:10354000FFF7B8FC40F20004C2F200044FF000099B
:103550000FF2700A7D7821687A684DB1104600F04C
:10356000CDFEB9680646786000F0E2FC09E000BFD5
:103570000846114600F06CFC61680646786000F071
:10358000ECFC002804BF85F0010078703046FDF7A0
:1035900059FF6420FEF76EF938780128DAD14046E9
:1035A000514604224FF0FF3387F80090FFF7B4FB39
:1035B000D0E700BF746172675F706F73203D202594
:1035C0002E3266004F4B0D0A000000005FEA400CEF
:1035D00008BF91F0000F4FEA8C234FEAC12243EA63
:1035E00051514FEA1C5018BF00F5F0404FEA30002F
:1035F00018BF41F000415FEA6C5C00F02980BCF12B
:10360000FF3F08BF40F080407047130C06BF120414
:103610004FF0100C4FF0000C130E04BF12020CF10F
:10362000080C130F04BF12010CF1040C930F04BF1C
:1036300092000CF1020CD30F04BF52000CF1010CEC
:1036400011464FF00002A0F11F00A0EB0C007047E4
:1036500011F0004F08BF704731F000413FF4D5AF83
:103660000B0C06BF09044FF0100C4FF0000C0B0EB2
:1036700004BF09020CF1080C0B0F04BF09010CF187
:10368000040C8B0F04BF89000CF1020CCB0F04BF9C
:1036900049000CF1010CCCF1200322FA03F341EABA
:1036A000030102FA0CF2A0EB0C0000F101007047DC
:1036B00023F07F4720F07F4C80EA030000F00040B9
:1036C000ACEB070303F57C5303F1FF032DE98049BD
:1036D00009B44FEA144324EA03484FEA154B25EA9C
:1036E0000B4E0FF2042606EB13273E7803FB06670A
:1036F000C7F5000707FB06F64FEAD64606F10206B5
:103700004FEA543707FB066CCCF1005C4FEA1C47CC
:103710002CEA074C0CFB06F507FB06F404EB1546F8
:103720004FEA961649085FEA320234BF00204FF094
:1037300000404FEAD13706FB07FC4FEA1C4C0CFB5C
:103740000BF7D21B03FB0CF761EB07010CFB0EF729
:10375000B0EB074072EB17420CFB08F734BFA2EB4B
:103760000742B2EB074261EB17414FEA0C444FEAC4
:10377000910706FB07FC4FEA1C4C0CFB0BF7B0EB68
:10378000C74072EB573203FB0CF734BFA2EBC742C2
:10379000B2EBC74261EB57310CFB0EF7B0EBC70041
:1037A00072EB57720CFB08F734BFA2EBC702B2EB07
:1037B000C70261EB57714FEA816141EA92114FEA0A
:1037C000826242EA90124FEA806004EBCC04039FCD
:1037D0004FEAD13706FB07FC4FEA1C4C0CFB0BF7FA
:1037E000D21B03FB0CF761EB07010CFB0EF7B0EBF0
:1037F000074072EB17420CFB08F734BFA2EB0742FD
:10380000B2EB074261EB17414FEA8C5504EB9C2465
:103810004FEA910706FB07FC4FEA1C4C0CFB0BF729
:10382000B0EBC74072EB573203FB0CF734BFA2EB8F
:10383000C742B2EBC74261EB57310CFB0EF7B0EB5E
:10384000C70072EB57720CFB08F734BFA2EBC7023C
:10385000B2EBC70261EB57714FEA816141EA921105
:103860004FEA826242EA90124FEA806015EB4C25E3
:1038700044F100044FEAD13706FB07FC4FEA1C4C29
:103880000CFB0BF7D21B03FB0CF761EB07010CFBE6
:103890000EF7B0EB074072EB17420CFB08F734BF92
:1038A000A2EB0742B2EB074261EB17414FEA8131CD
:1038B00041EA92414FEA823242EA90424FEA803036
:1038C0004FEA0C7615EB1C1544F1000448EA03435B
:1038D0004EEA0B484FF0000EB2EB080C71EB0307F9
:1038E00024BF624639464EEB0E0E4FF0000B001817
:1038F000524149414BEB0B0BB2EB080C71EB030748
:103900007BF1000B24BF624639464EEB0E0E4FF0A2
:10391000000B0018524149414BEB0B0BB2EB080C6A
:1039200071EB03077BF1000B24BF624639464EEB77
:103930000E0E51EA020718BF46F0010616EB0E768E
:1039400055F1000254F1000103D5BDE88901BDE83D
:103950000088BDE88901BDE80048B619524141EB35
:103960000101A3F10103704780807F7E7D7C7B7A1B
:103970007978777676757473727171706F6E6E6D1B
:103980006C6C6B6A6A6968686766666564646363C1
:1039900062616160605F5F5E5E5D5D5C5C5B5B5A47
:1039A0005A595958585757565655555554545353B4
:1039B00052525251515050504F4F4F4E4E4D4D4D0F
:1039C0004C4C4C4B4B4B4A4A4A494949484848475A
:1039D0004747474646464545454444444443434398
:1039E00043424242424141419C46002B30D4770041
:1039F0002BD04FEA37071CB503B44FF010004FF03F
:103A00001001BAF1000F06D0BCF1000FDCBF40F08E
:103A1000080040F008014FF000000FBCBDE8104066
:103A20000BF1010BBBF1010F08BF5FEA170722BFC3
:103A300012F1010211F101014FF0004143F10003C5
:103A400000F0004043EA00007047F9D35708D0E780
:103A500046EA06464FEA164613F1400F1FDD13F102
:103A6000200FDFBF16430A46002120335B42BED041
:103A7000C3F1200746EA06464FEA164602FA07F760
:103A800046EA070622FA03F2C3F1200701FA07F714
:103A900042EA070221FA03F14FF00003A7E746EAE2
:103AA000020646EA06464FEA164646EA0106BCBF4B
:103AB00046EA0646360C4FF000034FF000024FF086
:103AC000000194E72DE9804C70B49A46934691E842
:103AD000380007C831EA400C48BF34EA430C03D52C
:103AE000FFF7E6FDFFF780FFF0BCBDE8008C2DE995
:103AF000804C70B49A46934691E8380007C810F09D
:103B0000804F08BF13F0804F03D100F005F8FFF796
:103B10006BFFF0BCBDE8008C20F07F4723F07F4CAA
:103B200080EA030000F0004007EB0C03A3F57C5390
:103B3000A3F1FE0392F0000F00F0B38095F0000FA8
:103B400000F077802DE901494FEA114021EA004851
:103B50004FEA144624EA064700FB06FC08FB06F67B
:103B600007FB08F818EB06484CEB164C00FB07F770
:103B700018EB07484CEB17404FEA124B22EA0B4E6A
:103B80004FEA154625EA06470BFB06FC0EFB06F638
:103B900007FB0EFE1EEB064E4CEB164C0BFB07F71D
:103BA0001EEB074E4CEB174B18EB0B0840F10000D7
:103BB00018EB0E0B58EB000840F100008F1A4FF085
:103BC00000014FF000063CBFC943661B14BFB5EBB4
:103BD000040C00213CBFC943F61B4FEA174427EAF7
:103BE00004454FEA1C472CEA074C04FB076205FB1F
:103BF00007F70CFB05F616EB074642EB174204FBF2
:103C00000CFC16EB0C4642EB1C421BEB060658EB79
:103C1000020241414EEA8E0E46EA9E0601D5BDE8FB
:103C20000189B619524141EB0101A3F10103BDE83D
:103C300001894FEA144524EA05464FEA114721EA73
:103C4000074C05FB07F406FB07F70CFB06F111EB2D
:103C5000074144EB174405FB0CFC11EB0C4144EB12
:103C60001C444FEA124722EA074C05FB07F206FB09
:103C700007F70CFB06F616EB074642EB174205FB6F
:103C80000CFC16EB0C4642EB1C456A1854F1000183
:103C900048BF7047B619524141EB0101A3F101033E
:103CA000704795F0000F37D04FEA114221EA0246E3
:103CB0004FEA144724EA074C02FB07F106FB07F71B
:103CC0000CFB06F414EB074441EB174102FB0CFC20
:103CD00014EB0C4441EB1C414FEA154725EA074C15
:103CE00002FB07F506FB07F70CFB06F616EB07468B
:103CF00045EB174502FB0CFC16EB0C4645EB1C4252
:103D0000121951F1000148BF7047B619524141EBF9
:103D10000101A3F1010370474FEA144524EA054667
:103D20004FEA114721EA074C05FB07F106FB07F7AD
:103D30000CFB06F212EB074241EB174105FB0CFCB2
:103D400012EB0C4251EB1C414FF0000648BF70478C
:103D5000921841EB0101A3F101037047490050EAB9
:103D6000C12018BF04204A0D18BF40F0010040F2E6
:103D7000FF72B2EB515F08BF40F00200012808BF9C
:103D80000520704730380A2801D2012070470020F2
:103D90007047000010B500290AD00878002807D025
:103DA00005487844FDF706FB002801D0002010BD2F
:103DB0000248784410BD0000AE070000A6070000CE
:103DC00010B500290AD00878002807D005487844A3
:103DD000FDF7F0FA002801D0002010BD0248784419
:103DE00010BD00009E070000960700000808A0F51F
:103DF00000114FEA3101704743004FEAD30C4FEAFC
:103E00003C0C43401FBF40070CF1605113F0FE4FC4
:103E100070471CF0006F03D10CF000410020704788
:103E20000CF0004343EA507040EACC0010B500F0BB
:103E300019FA00BF000000924FEA0001FFF7D6BF59
:103E40004FF00041A1F500214FF000007047000045
:103E500090EA010F48BF81F0004100F15682421AFA
:103E60003CBF801A89184FEAD052A2EBD1534FF0D1
:103E70007F4C1CEA410F18BF9CEA026F00F03B80A8
:103E80004FF0004C4CEA00204CEA012121FA03FCDF
:103E900010EB0C0C1ED202F1FF325FEA1C2040EB4B
:103EA000C25038BF70471CF07F0F4FEA400C18BF5C
:103EB000BCF17F4F38BF7047C3F12003994008BF62
:103EC00020F00100BCF17F4F38BF7047A0F1C04027
:103ED00000F00EBA4FEA3C00000A40EBC25028BF87
:103EE0001CF0FF0F4FEA400CE6D018BFBCF17F4F2B
:103EF00038BF7047EAE79CEA026F05D010EA5C0F12
:103F000008BF00F00040704710B500F0ABF900BFEB
:103F100064FBBE3E10B500F0F5F80CBF0120002098
:103F200010BD10B500F0EEF814BF0120002010BD48
:103F300010B500F02FF98CBF0120002010BD10B586
:103F400000F028F92CBF0120002010BD10B500F0B2
:103F500055F994BF0120002010BD10B500F04EF9B6
:103F600034BF0120002010BD401058BFC0F14040B8
:103F7000491058BFC1F140418142EFF300807047C2
:103F80004FF47F0C1CEAD0121EBF1CEAD11392EA38
:103F90000C0F93EA0C0F00F0858090EA010F48BFE8
:103FA00042F4807240F4000C41F400002CF07F4198
:103FB00020F07F4000B5A2EB030281420FF2081C03
:103FC000ACEB504E9EF800E0C0F100004FEA4E0E00
:103FD00000FB0EFC38BF49004FEA2C1C0CFB0EF313
:103FE0004FEACE1E0EEB635E4FEA112C0EFB0CFC6B
:103FF0004FEAC1214FEA1C5300FB031102F5FA02FC
:104000004FEA112C0EFB0CFC4FEA01314FEADC4C5D
:1040100000FB0C1142EB2242C14228BF09184CEBB5
:1040200003335DF804EB10EB410143EBC250B2F5F2
:104030007C0F38BF704729D512F0F00F1CBF00F17C
:10404000C04000F0004070470081828384858687ED
:1040500088898B8C8D8E8F919293959697999A9C47
:104060009D9FA0A2A3A5A7A8AAACAEB0B2B3B5B7B6
:10407000B9BCBEC0C2C5C7C9CCCED1D4D7D9DCDF8C
:10408000E2E6E9ECF0F3F7FAFE0000004FEA400C3C
:104090000CF1807CBCF17E4F28BF7047B0F1C0406E
:1040A00000F026B90CEAD11390EA010F48BF42F4A0
:1040B0008072624538BF634507D213F47F0F16D074
:1040C00080EA010000F00040704710B500F0CAF827
:1040D000097EFC3E00F005B880EA010000F00040D7
:1040E000704780EA010000F0004000F001B912F4CE
:1040F0007F0F04BF0248704780EA010000F0F8B863
:104100000000C07F50EA010C00F113801CF5000F85
:1041100058BFBCF5000F01D48842704707D710F58F
:10412000000F58BF11F5000F15D48842704789421F
:1041300070471CF5000F04D5BCF5000FF7D5814280
:1041400070474FF0807C1CEB400F38BF1CEB410FD9
:1041500001D28142704710B500F084F892244900E2
:104160004FF000504FF08051FFF7FEBEB0FA80F3E1
:1041700010FA03F2C3F19D030AD0D90501EB122016
:10418000530638BF704700F1010008BF20F001005E
:104190007047000050EA010C00F113801CF5000F7D
:1041A00058BFBCF5000F01D48842704707D710F5FF
:1041B000000F58BF11F5000F15D48842704789428F
:1041C00070471CF5000F04D5BCF5000FF7D58142F0
:1041D00070474FF0807C1CEB400F38BF1CEB410F49
:1041E00001D28142704710B500F03CF8922449009A
:1041F0004FF080504FF00051FFF7B6BE50EA010C6F
:1042000000F113801CF5000F58BFBCF5000F01D45E
:104210008842704707D710F5000F58BF11F5000FFF
:1042200015D488427047894270471CF5000F04D5A9
:10423000BCF5000FF7D5814270474FF0807C1CEB36
:10424000400F38BF1CEB410F01D28142704710B5BF
:1042500000F008F8922449004FF000504FF08051D0
:10426000FFF782BE0EF1020E2EF0030E5EF8044B35
:10427000244204D44FEA4102B2F17F4F11D84FEAF1
:104280004003B3F17F4F0CD80ED14FEAD07C0CEB3A
:104290004C0C0CF1020CB2F17F4F08BF4CEBD17CFF
:1042A00004E04FF0080C01E04FEAD17C0CEB4C032A
:1042B00024FA03F404F00704B4F1040C06D20EEB64
:1042C000840CBDE810404CF0010C6047DFE80CF0B6
:1042D000070802024FF00040A0F5800010BD08461C
:1042E000420018BFD2F1807288BF00F0004010BDBC
:1042F000FF2141EAD050C0057047000090EA010F4D
:1043000048BF81F000413FF5AAAD421A04D882F0BF
:104310000042A0EB020011444FEAD052A2EBD1536D
:104320004FF07F4C1CEA410F18BF9CEA026F4AD045
:104330004FF0004C4CEA00204CEA012121FA03FC2A
:10434000B0EB0C0C0FD412F0FE0F36D05FEA4C002D
:104350001DD5001240EBC25038BF70471CF03F0F14
:1043600018BF70470BE05FEA1C20A2F1010240EB8E
:10437000C25038BF70471CF07F0F18BF7047C3F1A1
:104380002003994014BF401E20F0010070474FEAFF
:104390001223800808BF7047B0FA80FCA2EB0C0221
:1043A000CCF1280C60FA0CF093EA122F04BF00EB5A
:1043B000C25070474FEAC3707047130A5FEADC10BF
:1043C00008BF7047F6E79CEA026F04D010EA5C0F62
:1043D00008BF0020704710B5FFF744FF40DFF63EEE
:1043E00081F000407047FCF713BAFCF73DBD0400B4
:1043F00000080000000000000002000100001000A2
:104400000000000000000000303132333435363710
:104410003839414243444546403058003031323308
:104420003435363738396162636465664030780008
:10443000303132333435363738396162636465661A
:1044400078700030313233343536373839414243B1
:10445000444546585000000002400000000000A003
:104460000000000005400000000000C8000000003F
:104470000C4000000000409C0000000019400000BB
:104480000020BCBE0000000034400000BFC91B8EED
:1044900000000004B5400000504BCFD06607E2CFCB
:1044A000010000006C4100003E8251AADFEEA734FB
:1044B00001000000D9420000DCB5A0E23A301F97AD
:1044C000FFFFFFFFB4450000FD25A0C8E9A3C14FD1
:1044D000FFFFFFFFFF3F0000000000800000000022
:1044E000FF3F00000000008000000000000000000E
:1044F0000000000001020304060708090000000094
:1045000001020304010202030405060708090A0B5D
:104510000C0D0E0F10105B4442475D005B5741527B
:104520004E5D005B494E464F5D005B4552525D005B
:10453000804600080000002018000000500100081C
:10454000984600081800002040070000700100088D
:104550001C00000043000000F8FFFFFF0C000000FB
:104560000E0000000F0000002E00000010010000EF
:1045700043000000F8FFFFFF004040404040404043
:104580004040414141414140404040404040404026
:1045900040404040404040404005020202020202CA
:1045A0000202020202020202022020202020202019
:1045B000202020020202020202029090909090902D
:1045C00010101010101010101010101010101010EB
:1045D000101010100202020202028888888888885F
:1045E000080808080808080808080808080808084B
:1045F0000808080802020202400000000000000053
:1046000000000000000000000000000000000000AA
:10461000000000000000000000000000000000009A
:10462000000000000000000000000000000000008A
:10463000000000000000000000000000000000007A
:10464000000000000000000000000000000000006A
:10465000000000000000000000000000000000005A
:10466000000000000000000000000000000000004A
:10467000000000000000000000000000000000003A
:10468000CDCCCC3D0000C040010000001000000077
:0846900000127A000000000096
:04000005080000ED02
:00000001FF
